:020000040800F2
:100000008044002045010008D11C0008D31C0008D2
:10001000D71C0008DB1C0008DF1C000800000000E3
:10002000000000000000000000000000E31C0008C9
:10003000E51C000800000000E71C0008E91C00089F
:100040005F0100085F0100085F0100085F01000810
:100050005F0100085F0100085F0100085F01000800
:100060005F0100085F0100085F010008EB1C000849
:100070005F0100085F0100085F0100085F010008E0
:100080005F0100085F0100085F0100085F010008D0
:100090005F0100085F0100085F010008531D0008B0
:1000A0005F0100085F0100085F0100085F010008B0
:1000B0005F0100085F0100085F0100085F010008A0
:1000C0005F0100085F0100085F0100085F01000890
:1000D0005F0100085F0100085F0100085F01000880
:1000E0005F0100085F0100085F0100085F01000870
:1000F0005F0100085F0100085F0100085F01000860
:100100005F0100085F0100085F0100085F0100084F
:100110005F0100085F0100085F0100085F0100083F
:100120005F0100085F0100085F0100085F0100082F
:10013000DFF80CD00CF00EFB00480047ED1600086D
:10014000804400200648804706480047FEE7FEE757
:10015000FEE7FEE7FEE7FEE7FEE7FEE7FEE7FEE777
:1001600047020008310100080CB500200190009002
:100170006C48006840F480306A49086000BF6948F4
:10018000006800F4003000900198401C0190009835
:1001900018B90198B0F5A06FF1D16248006800F479
:1001A000003010B10120009001E000200090009884
:1001B000012843D15C48006840F010005A490860AB
:1001C0000846006820F0030008600846006840F018
:1001D0000200086053484068524948600846406839
:1001E00048600846406840F48060486008464068BF
:1001F00020F47C1048600846406840F4E8104860ED
:100200000846006840F08070086000BF45480068FC
:1002100000F000700028F9D04248406820F0030048
:10022000404948600846406840F00200486000BF0E
:100230003C48406800F00C000828F9D10CBD10B50E
:10024000FFF792FF10BD10B53648006840F001007E
:1002500034490860084640683449084031494860DC
:1002600008460068324908402E4908600846006880
:1002700020F4802008600846406820F4FE004860B2
:100280004FF41F008860FFF7DAFF4FF00060294944
:10029000086010BD10B5002100200022214B5B68D2
:1002A00003F00C0121B1042906D0082928D107E068
:1002B000214B224C236027E01F4B204C236023E07E
:1002C000184B5B6803F47010164B5B6803F48032C4
:1002D000022303EB904022B9194B4343174C236090
:1002E0000DE0104B5B6803F4003323B1144B434320
:1002F000124C236003E0104B4343104C236003E097
:100300000D4B0E4C236000BF00BF064B5B68C3F370
:1003100003130C4CE15C094B1B68CB40074C23607A
:1003200010BD000000100240002002400000FFF855
:10033000FFFFF6FE08ED00E000127A00000000204A
:1003400000093D000400002031490143314A116099
:10035000704770B5002100230F22C47804B32D4CE0
:10036000246804F4E064C4F5E064210AC1F10403E4
:10037000CA40447804FA03F1847814402143090107
:10038000254C0678A155047804F01F050124AC40E3
:1003900005786D11AD0005F1E025C5F8004109E0D3
:1003A000047804F01F050124AC401C4D067876113A
:1003B00045F8264070BD1A4A0A400243154B1B1FE0
:1003C0001A60704739B1134A121D12680243114B6B
:1003D0001B1D1A6006E00F4A121D126882430D4B66
:1003E0001B1D1A607047042808D14FF0E0210969ED
:1003F00041F004014FF0E022116107E04FF0E021ED
:10040000096921F004014FF0E022116170470000FA
:100410000000FA050CED00E000E400E080E100E0FF
:1004200080FFFF1F10B50446FA48844208D101211D
:10043000401500F00DFF0021601500F009FF17E0E6
:10044000F548844208D10121001500F001FF002188
:10045000201500F0FDFE0BE0F048844208D1012198
:10046000C80300F0F5FE00214FF4004000F0F0FE5C
:1004700010BD30B50246002000235068E84C2040F3
:100480000D790C6844EA0524204350609068E54CDF
:100490002040D1E902542C434D7944EA45042043DD
:1004A0009060D06A20F470000C7C641EE4B2234398
:1004B00040EA0350D06230BD0021016001714171FA
:1004C0008160C16001210174704721B1826842F0EE
:1004D0000102826003E0826822F0010282607047BC
:1004E00021B1826842F48072826003E0826822F463
:1004F00080728260704710B50023CBB21AB1446895
:100500001C43446002E044689C43446010BD816821
:1005100041F0080181607047014600208A6802F0BE
:1005200008020AB1012000E000207047816841F014
:10053000040181607047014600208A6802F00402CD
:100540000AB1012000E00020704721B1826842F426
:10055000A002826003E0826822F4A00282607047F9
:10056000014600208A6802F480020AB1012000E0FE
:100570000020704710B50A4600210023416821F48D
:100580006041531E41EA4331416010BD21B14268D0
:1005900042F40062426003E0426822F4006242607A
:1005A0007047F0B504460D4600200021092D11DDED
:1005B000E068A5F10A0606EB4607072606FA07F1EA
:1005C0008843A5F10A0606EB460603FA06F108433E
:1005D000E0600CE0206905EB4507072606FA07F105
:1005E000884305EB450603FA06F108432061072A14
:1005F0000FDA606B561E06EB86071F2606FA07F118
:100600008843561E06EB860605FA06F1084360632A
:1006100022E00D2A0FDA206BD61F06EB86071F2675
:1006200006FA07F18843D61F06EB860605FA06F19F
:100630000843206310E0E06AA2F10D0606EB86078E
:100640001F2606FA07F18843A2F10D0606EB86067F
:1006500005FA06F10843E062F0BD21B1826842F478
:100660008012826003E0826822F480128260704708
:100670000146C86C80B2704766484C3000687047CD
:1006800021B1426842F48062426003E0426822F491
:1006900080624260704721B1426842F480524260F9
:1006A00003E0426822F48052426070470A4600210B
:1006B000816821F4E04111438160704721B1826873
:1006C00042F40042826003E0826822F400428260C9
:1006D000704721B1826842F40212826003E08268AE
:1006E00022F4021282607047014600208A6802F4F8
:1006F00000120AB1012000E000207047F0B5044666
:100700001546002000220026092911DDE068A1F12C
:100710000A0707EB470C072707FA0CF29043A1F1F1
:100720000A0707EB470703FA07F21043E0600CE003
:10073000206901EB410C072707FA0CF2904301EB0B
:10074000410703FA07F210432061A06BC0F3015682
:10075000EF1C06F1010CA7EB0C0707EB870C1F271A
:1007600007FA0CF29043EF1C06F1010CA7EB0C0703
:1007700007EB870701FA07F21043A063F0BD10B53D
:100780000A4600210023816B21F44011531E41EAE7
:100790000351816310BD08B5002300930090009BB6
:1007A0000B440093009B1A6008BD08B50246002068
:1007B0000090009201F12800009B184400900098DE
:1007C000006880B208BD0A4600214168164B1940F6
:1007D0001143416070474162826270470A460021BE
:1007E000416821F01F0111434160704740B1094940
:1007F0000831096841F40001064A0832116007E037
:1008000004490831096821F40001024A08321160E4
:10081000704700000024014000280140003C0140D6
:10082000FFFEF0FFFDF7F1FFFFFD3FFF0246002056
:1008300013680B400BB1012000E000207047CA4351
:100840000260704770B502460020002300240B129E
:100850005568CEB205EA060415681D4015B10CB105
:10086000012000E0002070BD00220A12D343036083
:100870007047000001684FF6FE72114001600021D0
:10088000016041608160C1608D49884208D18C4916
:100890000839496841F00F01894A083A51608AE0F5
:1008A00087491431884208D185490839496841F09F
:1008B000F001834A083A51607DE08149283188423D
:1008C00008D17F490839496841F470617C4A083A87
:1008D000516070E07A493C31884208D17849083942
:1008E000496841F47041764A083A516063E07449BE
:1008F0005031884208D172490839496841F4702161
:100900006F4A083A516056E06D496431884208D117
:100910006B490839496841F47001694A083A5160E5
:1009200049E067497831884208D165490839496802
:1009300041F07061624A083A51603CE06149884286
:1009400006D1011F096841F00F01021F116032E05A
:100950005C491431884208D15A49091F096841F09D
:10096000F001584A121F116025E05649283188428B
:1009700008D15449091F096841F47061514A121F96
:10098000116018E04F493C31884208D14D49091F98
:10099000096841F470414B4A121F11600BE049494C
:1009A0005031884207D14749091F096841F4702135
:1009B000444A121F1160704710B50022026847F6C2
:1009C000F0739A430C6A8B6823430C6923434C6988
:1009D00023438C692343CC6923434C6A23438C6AA9
:1009E00023431A430260CB6843600B6883604B6803
:1009F000C36010BD0021016041608160C160016180
:100A000041618161C161016241628162704721B1CE
:100A1000026842F00102026004E002684FF6FE73D1
:100A20001A40026070471AB103680B43036002E08A
:100A300003688B4303607047416070470146486814
:100A400080B2704701460020002201F080531BB1A4
:100A50001C4B083B1A6802E0194B083B1A6802EA73
:100A600001030BB1012000E00020704700F080512D
:100A700019B11449091F086002E01149083948609A
:100A8000704701460020002201F080531BB10D4B3E
:100A9000083B1A6802E00A4B083B1A6802EA0103A5
:100AA0000BB1012000E00020704700F0805119B127
:100AB0000449091F086002E001490839486070478D
:100AC0000800024008040240002044490860091D53
:100AD0000860091D0860091D086041483F4914313C
:100AE0000860704700213D498279002A3AD00A46C1
:100AF000126803689A430B461A600A1D126803685D
:100B00009A430B1D1A60027911440A6803681A435C
:100B10000A60324A0832126803689A432F4B08333E
:100B20001A601A1D126803689A432C4B0C331A6022
:100B30004279102A0ED11A1F126803681A43274BF4
:100B400008331A601A1D126803681A43234B0C33CA
:100B50001A600DE02149427911440A6803681A437A
:100B60000A6005E0027911440A6803689A430A6042
:100B700070470021016001710C21417100218171D8
:100B800070471649103109680143144A1032116048
:100B9000704701460020114A143212680A400AB117
:100BA000012000E0002070470C49143108607047B4
:100BB000014600200022094B1B6803EA0102074B93
:100BC00014331B680B4013B10AB1012000E0002070
:100BD000704702491431086070470000000401406A
:100BE000FFFF0F0010B50446CC48844208D1012114
:100BF000042000F02DFB0021042000F029FB46E03A
:100C0000C748844208D10121082000F021FB0021BF
:100C1000082000F01DFB3AE0C248844208D10121BF
:100C2000102000F015FB0021102000F011FB2EE039
:100C3000BD48844208D10121202000F009FB002199
:100C4000202000F005FB22E0B848844208D10121B1
:100C5000402000F0FDFA0021402000F0F9FA16E0F3
:100C6000B348844208D10121802000F0F1FA00212C
:100C7000802000F0EDFA0AE0AE48844207D101215D
:100C8000801500F0E5FA0021A01500F0E1FA10BD92
:100C900010B50121084600F0DBFA0021012000F028
:100CA000D7FA10BD2DE9F0410246002500260020AC
:100CB00000230024002791F803C00CF00F0591F8E1
:100CC00003C00CF0100CBCF1000F03D091F802C06F
:100CD0004CEA050591F800C0BCF1000F31D0146852
:100CE00000202BE04FF0010C0CFA00F3B1F800C02B
:100CF0000CEA03069E4220D183004FF00F0C0CFA41
:100D000003F7BC4305FA03FC4CEA040491F803C062
:100D1000BCF1280F06D14FF0010C0CFA00FCC2F810
:100D200014C00AE091F803C0BCF1480F05D14FF0A0
:100D3000010C0CFA00FCC2F810C0401C0828D1D3EA
:100D40001460B1F800C0BCF1FF0F34DD546800201E
:100D50002EE000F1080C4FF0010808FA0CF3B1F88E
:100D600000C00CEA03069E4221D183004FF00F0C15
:100D70000CFA03F7BC4305FA03FC4CEA040491F8AF
:100D800003C0BCF1280F05D100F1080C08FA0CF8DB
:100D9000C2F8148091F803C0BCF1480F07D100F1EC
:100DA000080C4FF0010808FA0CF8C2F81080401C3B
:100DB0000828CED35460BDE8F0814FF6FF71018062
:100DC000022181700421C17070470246002093689F
:100DD0000B400BB1012000E00020704701468868FD
:100DE00080B2704702460020D3680B400BB101204F
:100DF00000E0002070470146C86880B2704701617A
:100E00007047416170470AB1016100E0416170477C
:100E1000C16070474FF480320A4382618161826110
:100E200082698269704702460020434B18684FF67A
:100E30008073184040EA021008433F4B1860704727
:100E40003E49C8617047F0B50A46002300240021DE
:100E5000002500F00046B6F1004F02D1364EF16990
:100E600001E0354E7168C0F3034583B200F44016CB
:100E7000B6F5401F08D121F070612F4E766826F03C
:100E800070662D4F7E6012E000F48016B6F5801F6C
:100E900006D1032606FA05F4A14341F0706106E08D
:100EA000460D360103FA06F6B14341F0706122B1F6
:100EB000460D360103FA06F6314300F00046B6F15E
:100EC000004F02D11C4EF16101E01B4E7160F0BD7C
:100ED00030B500228B071C0F0F2303FA04F2164BC8
:100EE00008338C1053F824309343134C08348D107E
:100EF00044F8253023468C1053F824308C07240FF7
:100F000000FA04F423430C4C08348D1044F82530C7
:100F100030BD0A49DC31086070470000000801401C
:100F2000000C014000100140001401400018014075
:100F3000001C014000200140000001400000204250
:100F4000DF48006840F00100DD490860084640685D
:100F5000DC490840DA49486008460068DA49084038
:100F6000D74908600846006820F4802008600846D9
:100F7000406820F4FE0048604FF41F00886070470E
:100F8000CF49096821F48031CD4A116011460968C2
:100F900021F480211160B0F5803F03D0B0F5802F9F
:100FA0000ED106E0C649096841F48031C44A116097
:100FB00007E0C349096841F4A021C14A116000E07B
:100FC00000BF00BF704710B501460022002300207B
:100FD0004A11012A02D1BA4C236806E0022A02D142
:100FE000B74C236A01E0B64C636A01F01F0201248A
:100FF00094401C400CB1012000E0002010BD38B529
:10100000002000900024002500BF3120FFF7DBFF07
:1010100005460098401C00900098B0F5A06F01D0E4
:10102000002DF2D03120FFF7CEFF08B1012400E0FF
:101030000024204638BD01460020A14A106820F057
:10104000F80040EAC10010607047A049086070478E
:10105000024600209A4B586820F47C1042EA0103B3
:101060001843974B58607047984908667047014687
:101070000020934A506820F00300084350607047F6
:101080008F48406800F00C007047014600208C4AF1
:10109000506820F0F000084350607047014600207F
:1010A000874A506820F4E06008435060704701466A
:1010B0000020834A506820F4605040EAC10050602C
:1010C000704729B17E4A527A02437D4B5A7204E03E
:1010D0007B4A527A82437A4B5A7270477B49D831A5
:1010E0000860704701460020754A506820F440406F
:1010F0000843506070470021714A20321170704AD5
:1011000082F82010012802D004280AD104E001212D
:101110006B4A2032117005E00521694A20321170B6
:1011200000E000BF00BF704769490860704764492C
:10113000096A0143624A116270476549443908608F
:10114000704730B500210022002400235C4D6D68FB
:1011500005F00C0121B1042905D0082923D105E0AF
:101160005C4D056022E05B4D05601FE0544D6D68ED
:1011700005F47012524D6D6805F48034022505EBBC
:1011800092421CB9544D554305600BE04C4D6D68BF
:1011900005F400351DB1504D5543056002E04D4D3D
:1011A0005543056002E04B4D056000BF00BF444D54
:1011B0006D6805F0F0010909484D6B5C0568DD407C
:1011C00045603F4D6D6805F4E061090A434D6B5C75
:1011D0004568DD4085603A4D6D6805F46051C90A87
:1011E0003E4D6B5C4568DD40C560354D6D6805F46E
:1011F0004041890B3A4D6B5CC568B5FBF3F5056161
:1012000030BD29B12E4A526902432D4B5A6104E088
:101210002B4A526982432A4B5A61704729B1284AA6
:1012200092690243264B9A6104E0254A92698243FF
:10123000234B9A61704729B1214AD2690243204B5E
:10124000DA6104E01E4AD26982431D4BDA617047BD
:1012500029B11B4AD2680243194BDA6004E0184AEC
:10126000D2688243164BDA60704729B1144A12697A
:101270000243134B1A6104E0114A12698243104B76
:101280001A61704712494039086070470F49C864B5
:1012900070470B49C87170470948406A40F0807038
:1012A00007494862704701460020054A92680A4093
:1012B0000AB1012000E000207047014988727047A0
:1012C000001002400000FFF8FFFFF6FE000042425F
:1012D0008004424200127A0000093D001400002000
:1012E0002400002010B50446FB48844209D10121A6
:1012F0008803FFF7ADFF00214FF48040FFF7A8FF00
:1013000032E0F648844209D101214804FFF7ADFFDD
:1013100000214FF40030FFF7A8FF25E0F048844299
:1013200009D101218804FFF7A0FF00214FF480209C
:10133000FFF79BFF18E0EB48844209D10121C80464
:10134000FFF793FF00214FF40020FFF78EFF0BE023
:10135000E548844208D101210805FFF786FF0021F6
:101360004FF48010FFF781FF10BD2DE9F04786B0E4
:1013700005460E460024A24600BFA1460027B089BC
:1013800000B100BF2F462C8A4CF6FF700440F08855
:1013900004432C82AC894EF6F3100440B0883189A6
:1013A0000843718908430443AC81AC8A4FF6FF407F
:1013B0000440B0890443AC8201A8FFF7C2FEC648CE
:1013C000874202D1DDF810A001E0DDF80CA0A88969
:1013D00000F4004040B10AEBCA0000EB0A1031688B
:1013E0004900B0FBF1F807E00AEBCA0000EB0A1075
:1013F00031688900B0FBF1F86420B8FBF0F004011B
:101400002009642101FB1089A88900F4004040B143
:10141000322000EBC900B0FBF1F000F007000443FC
:1014200008E0322000EB09106421B0FBF1F000F07D
:101430000F0004432C8106B0BDE8F0874FF416512D
:10144000016000218180C18001810C214181002146
:101450008181704710B502460020108A4FF2FF03C9
:1014600018400B884C8823438C882343CC88234323
:101470001843108210BD0021018041808180C1800D
:10148000704721B1828942F40052828104E082894E
:101490004DF6FF731A4082817047F0B50346002471
:1014A00000260025002040F66A17B94200D100BF8F
:1014B0001846C1F3421401F01F06012707FA06F58A
:1014C000012C01D10C3004E0022C01D1103000E0DD
:1014D00014301AB107682F43076002E00768AF4372
:1014E0000760F0BD1AB1838A0B43838202E0838ACE
:1014F0008B4383827047028A4FF6F0731A40028250
:10150000028A0A430282704782894FF2FF731A40AF
:10151000828182890A438281704721B1828942F0A7
:101520000202828104E082894FF6FD731A408281B3
:101530007047028A4FF6DF731A400282028A0A431A
:101540000282704721B1028A42F48042028204E0A2
:10155000028A4BF6FF731A4002827047C1F30802F9
:101560008280704701468888C0F3080070478189EF
:1015700041F0010181817047028BD2B20283028B5C
:1015800042EA012202837047028B02F47F42028307
:10159000028B0A430283704721B1828A42F0200203
:1015A000828204E0828A4FF6DF731A40828270479B
:1015B00021B1828A42F01002828204E0828A4FF6D0
:1015C000EF731A408282704721B1828A42F008028A
:1015D000828204E0828A4FF6F7731A408282704753
:1015E00021B1828942F40042828103E08289C2F300
:1015F0000E028281704721B1828A42F400628282A7
:1016000004E0828A4FF2FF731A4082827047828A16
:101610004FF6FB731A408282828A0A4382827047A5
:1016200021B1828A42F00202828204E0828A4FF66D
:10163000FD731A408282704702460020B1F5007F98
:1016400000D100BF13880B400BB1012000E0002047
:10165000704701F40072B2F5007F00D100BFCA43A9
:101660000280704770B50246002400230025002048
:1016700040F66A16B14200D100BFC1F3421501F035
:101680001F03012606FA03F3012D02D19689334088
:1016900006E0022D02D1168A334001E0968A3340DB
:1016A0000C12012606FA04F41688344013B10CB16A
:1016B000012000E0002070BD10B50022002340F69C
:1016C0006A14A14200D100BF0A1201249440A3B2BF
:1016D000DC43048010BD000000380140004400409D
:1016E00000480040004C00400050004086B000F030
:1016F000A3FC00F00AFD09F0C7FB0820FE490860C2
:101700000020FE49086000F08AFDFDA00BF054F8AF
:101710004FF0000905E007F0DEF809F101001FFABB
:1017200080F9B9F1040FF6DB00F00EFCBBE200BF5C
:10173000F6480078FF28FBD04FF48062F449F54862
:1017400009F020FC00F00EFCF34988684FF08B4153
:101750000AF092FD82460AF0E9FE07464FF0663233
:10176000EE4B0AF0C7FD05460AF0F3FEEC490860AF
:10177000EC4800680AF09FFE0746E94801683846D1
:101780000AF048FD06464FF081410AF03DFD05464E
:101790000AF09FFEE449086008460068082801DD59
:1017A00008200860E0480068002802DA0020DE49CE
:1017B0000860D949C8684FF08B410AF05DFD824648
:1017C0000AF0B4FE07464FF06632D44B0AF092FDA1
:1017D00005460AF0BEFED2490860D24800680AF009
:1017E0006AFE0746CE48016838460AF013FD0646F1
:1017F0004FF081410AF008FD05460AF06AFECA4929
:10180000486008464068082801DD08204860C6484E
:101810004068002802DA0020C3494860BE49486A8F
:101820004FF08B410AF028FD82460AF07FFE074602
:101830004FF06632B94B0AF05DFD05460AF089FEAD
:10184000B7490860B74800680AF035FE0746B44853
:10185000016838460AF0DEFC0646B4490AF0D4FCBA
:1018600005460AF036FEB0498860084680680828B8
:1018700001DD08208860AC488068002802DA00207A
:10188000A9498860A449C86A4FF08B410AF0F4FC6A
:1018900082460AF04BFE07464FF066329F4B0AF035
:1018A00029FD05460AF055FE9D4908609D480068DF
:1018B0000AF001FE80469A48016840460AF0AAFCF8
:1018C00007464FF080410AF0A5FC064698490AF009
:1018D0009BFC05460AF0FDFD9349C8600846C068B8
:1018E000082801DD0820C8608F48C068002802DA97
:1018F00000208D49C8608849886B4FF08B410AF001
:10190000BBFC82460AF012FE07464FF06632834B5C
:101910000AF0F0FC05460AF01CFE81490860814887
:1019200000680AF0C8FD80467D48016840460AF01C
:1019300071FC07464FF080410AF06CFC06467D4979
:101940000AF062FC05460AF0C4FD774908610846C2
:101950000069082801DD0820086173480069002833
:1019600002DA0020704908616B49886F4FF08B41A3
:101970000AF082FC82460AF0D9FD07464FF0663233
:10198000664B0AF0B7FC05460AF0E3FD64490860BF
:10199000644800680AF08FFD80466148016840464F
:1019A0000AF038FC074661490AF034FC06466149F2
:1019B0000AF02AFC05460AF08CFD5B49486108469E
:1019C0004069082801DD082048615748406900281F
:1019D00002DA0020544948614F49D1F868014FF0BC
:1019E0008B410AF049FC82460AF0A0FD05464FF003
:1019F00066324A4B0AF07EFC07460AF0AAFD4849C7
:101A00000860484800680AF056FD8046444801686E
:101A100040460AF0FFFB07464FF081410AF0FAFB0F
:101A2000064644490AF0F0FB05460AF052FD3E49DD
:101A3000886108468069082801DD082088613A48E5
:101A40008069002802DA0020374988613249D1F8DC
:101A500058024FF08B410AF00FFC82460AF066FDF7
:101A600005464FF066322D4B0AF044FC07460AF05B
:101A700070FD2B4908602B4800680AF01CFD804669
:101A80002748016840460AF0C5FB07464FF08141F0
:101A90000AF0C0FB064626490AF0B6FB05460AF0E6
:101AA00018FD2149C8610846C069082801DD0820E1
:101AB000C8611D48C069002802DA00201A49C861BF
:101AC0001549D1F8A8024FF08B410AF0D5FB8246A8
:101AD0000AF02CFD07464FF06632104B0AF00AFC64
:101AE00005460AF036FD0E4908600E4800680AF007
:101AF000E2FC80460A481FE0480000203800002031
:101B0000B8C2B8C2B8C2200A0000000028000020F5
:101B100054000020541000205420002066660A4023
:101B20002C000020440000205430002000004040E1
:101B30000000C0400000E040016840460AF06AFB37
:101B400007464FF081410AF065FB06464FF082419F
:101B50000AF05AFB05460AF0BCFC534908620846E5
:101B6000006A082801DD082008624F48006A002842
:101B700002DA00204C4908624C49D1F838044FF091
:101B80008B410AF079FB82460AF0D0FC07464FF001
:101B90006632474B0AF0AEFB05460AF0DAFC4549CF
:101BA0000860454800680AF086FC804641480168A4
:101BB00040460AF02FFB07464FF081410AF02AFB0E
:101BC00006463E490AF020FB05460AF082FC3649EB
:101BD00048620846406A082801DD08204862324809
:101BE000406A002802DA00202F4948623448006821
:101BF00010B1012843D118E02B48406A2A490A6AEB
:101C0000C969294B9B69CDE90231CDE904202648F9
:101C1000406925490969244DCDE90010EB68AA689F
:101C20006968286802F09CF929E0002412E01E4847
:101C300050F8240023490968884209DD1A4850F801
:101C400024002049086020460AF03EFC1E49086036
:101C5000601C84B2052CEADB18491B4800680AF0B6
:101C600081FA07460AF04EFC85B21648066806EB74
:101C7000D670C0F34F01284602F0ECFF00BF00BF52
:101C80000020094948620862C861886148610861AA
:101C9000C8608860486008600A4908600A490860AE
:101CA000FF200A49087042E55430002054200020EB
:101CB00066660A402C000020440000200000A0407E
:101CC00038000020300000203400002028000020D0
:101CD000704700BFFEE700BFFEE700BFFEE700BFA2
:101CE000FEE7704770477047704710B50024042026
:101CF000FEF7A8FE012810D100BF07E03C4830F8ED
:101D0000140000043B4941F82400641CB4F5806FC2
:101D1000F4DB00240420FEF7A9FE0220FEF792FE69
:101D2000012812D1002409E0314904F5806031F81E
:101D3000100000042F4941F82400641CB4F5806FA2
:101D4000F2DB00240220FEF791FE00202A490870F1
:101D500010BD10B54020FEF72BFF10B10020274921
:101D600008604020FEF735FF8020FEF721FF10B10C
:101D70000120224908608020FEF72BFF4FF480707D
:101D8000FEF716FFD0B11E480068401C1C490860D1
:101D900008460068012801DD002008601848006836
:101DA00020B940211748FFF72CF807E014480068D5
:101DB000012803D140211348FFF721F84FF4807028
:101DC000FEF707FF4FF40070FEF7F2FE50B10E4829
:101DD000006840000C49086008460068802801DD62
:101DE000082008604FF40070FEF7F3FE10BD0000FD
:101DF0007C30002054000020280000203800002003
:101E00003C000020001801404800002008B50121D6
:101E10000846FFF7F6F901214FF40470FFF7FEF9C9
:101E20000420ADF8000000208DF803006946494801
:101E3000FEF738FF08BD08B54FF4C060FEF784FA1E
:101E40000B208DF8000001208DF801008DF80200B4
:101E50008DF803006846FEF77CFA08BD00B591B026
:101E6000FFF7E9FF3C48FEF705FD3C4806903C487B
:101E70000790002008904FF40060099000200A901D
:101E800080200B9040000C9080000D9020200E9040
:101E900000020F900020109006A92F48FEF78CFD3D
:101EA00001212D48FEF7B3FD012204212A48FEF747
:101EB000BAFD012202212848FEF7B5FD002001905D
:101EC0008DF8080001208DF809004FF46020039080
:101ED0000020049001208DF8140001A91F484C38FF
:101EE000FEF7C7FA4FF44040FFF7FCF80723012242
:101EF0000C211A484C38FEF754FB012117484C3886
:101F0000FEF7EEFA012115484C38FEF7DEFA1348C9
:101F10004C38FEF7FCFA00BF10484C38FEF7FCFACC
:101F20000028F9D10D484C38FEF700FB00BF0B48E4
:101F30004C38FEF700FB0028F9D1012107484C3846
:101F4000FEF703FB11B000BD10B5FFF75FFFFFF711
:101F500085FF10BD00100140080002404C240140E4
:101F60007C3000202DE9F04F89B0002458E02F4844
:101F700030F824000FFA80F92C4850F82400000CA7
:101F80000FFA80FA48460AF096FA80464FF08941E7
:101F90000AF040F907464FF08E410AF06DF9054608
:101FA00050460AF088FA80464FF089410AF032F92B
:101FB00007464FF08E410AF05FF90646314630463B
:101FC0000AF028F92946029028460AF023F90190E0
:101FD00002990AF0C7F803900AF0A8FACDE90401C3
:101FE0000AF019FC0022124BCDE906010AF0F4F9BF
:101FF00007460AF0AEFA834644B94FF08E41584680
:102000000AF008F90B4941F8240007E04FF08F412E
:1020100058460AF0FFF8074941F82400601C84B2D2
:10202000B4F5007FA3DB09B0BDE8F08F54100020A9
:10203000000090405420002000B585B0012144F2FA
:102040000400FFF7EBF84FF40070ADF81000182013
:102050008DF8130003208DF8120004A92448FEF720
:1020600021FE4FF48060ADF8100004208DF81300BD
:1020700004A91F48FEF716FE4FF4E130009000203F
:10208000ADF80400ADF80600ADF80800ADF80C009E
:102090000C20ADF80A0069461648FFF766F90122E0
:1020A00040F225511348FFF7F8F901211148FFF7D5
:1020B000E8F905B000BD70B504460D46E1B20D4823
:1020C000FFF74CFA00BF80210A48FFF7B5FA002855
:1020D000F9D0204670BD10B5044600BF2021054848
:1020E000FFF7AAFA0028F9D00248FFF73BFA10BD23
:1020F000000801400038014001B502E00098401E90
:10210000009000980028F9D108BD08B501214820A9
:10211000FFF784F84020ADF8000010208DF8030090
:1021200003208DF802006946FE48FEF7BBFD402102
:10213000FC48FEF766FE4020ADF8000010208DF848
:10214000030003208DF802006946F748FEF7AAFD58
:102150004021F548FEF753FE08BDF2480C300068F8
:1021600040F04000EF490C3108600846006840F03C
:10217000400008600846006840F0400008600846DB
:10218000006840F0400008600846006840F04000E9
:1021900008600846006840F0400008600846006893
:1021A00020F0400008600846006820F04000086009
:1021B0000846006820F0400008607047D9480C309D
:1021C000006840F04000D7490C31086008460068BC
:1021D00040F0400008600846006840F04000086099
:1021E0000846006820F0400008600846006820F0BB
:1021F000400008600846006820F04000086008467B
:10220000006820F0400008600846006820F04000A8
:1022100008600846006820F0400008607047C14828
:102220000C30006820F04000BE490C3108600846C0
:10223000006820F0400008600846006820F0400078
:1022400008600846006820F0400008600846006802
:1022500020F0400008600846006820F04000086058
:102260000846006820F0400008600846006820F03A
:10227000400008600846006820F0400008600846FA
:10228000006820F0400008600846006820F0400028
:1022900008600846006820F04000086008460068B2
:1022A00020F0400008600846006820F04000086008
:1022B0000846006820F0400008600846006820F0EA
:1022C000400008600846006820F0400008600846AA
:1022D000006820F0400008600846006820F04000D8
:1022E00008600846006820F0400008600846006862
:1022F00020F0400008600846006820F040000860B8
:102300000846006820F0400008600846006820F099
:10231000400008600846006820F040000860084659
:10232000006820F0400008600846006820F0400087
:1023300008600846006820F0400008600846006811
:1023400020F0400008600846006820F04000086067
:102350000846006820F0400008600846006820F049
:10236000400008600846006820F040000860084609
:10237000006820F0400008600846006820F0400037
:1023800008600846006820F04000086008460068C1
:1023900020F0400008600846006820F04000086017
:1023A0000846006820F0400008600846006820F0F9
:1023B000400008600846006820F0400008600846B9
:1023C000006820F0400008600846006820F04000E7
:1023D00008600846006820F0400008600846006871
:1023E00020F0400008600846006820F040000860C7
:1023F0000846006820F0400008600846006820F0A9
:10240000400008600846006820F040000860084668
:10241000006820F0400008600846006820F0400096
:1024200008600846006820F0400008600846006820
:1024300020F0400008600846006820F04000086076
:102440000846006820F0400008600846006820F058
:10245000400008600846006820F040000860084618
:10246000006820F0400008600846006820F0400046
:1024700008600846006820F04000086008460068D0
:1024800020F0400008600846006820F04000086026
:102490000846006820F0400008600846006820F008
:1024A000400008600846006820F0400008600846C8
:1024B000006820F0400008600846006820F04000F6
:1024C00008600846006820F0400008600846006880
:1024D00020F0400008600846006820F040000860D6
:1024E0000846006820F0400008600846006820F0B8
:1024F000400008600846006820F040000860084678
:10250000006820F0400008600846006820F04000A5
:1025100008600846006820F040000860084600682F
:1025200004E00000000C01400018014020F04000D1
:1025300008600846006820F040000860084600680F
:1025400020F0400008600846006820F04000086065
:102550000846006820F0400008600846006820F047
:10256000400008600846006820F040000860084607
:10257000006820F0400008600846006820F0400035
:1025800008600846006820F04000086008460068BF
:1025900020F0400008600846006820F04000086015
:1025A0000846006820F0400008600846006820F0F7
:1025B000400008600846006820F0400008600846B7
:1025C000006820F0400008600846006820F04000E5
:1025D00008600846006820F040000860084600686F
:1025E00020F0400008600846006820F040000860C5
:1025F0000846006820F0400008600846006820F0A7
:10260000400008600846006820F040000860084666
:10261000006820F0400008600846006820F0400094
:1026200008600846006820F040000860084600681E
:1026300020F0400008600846006820F04000086074
:102640000846006820F0400008600846006820F056
:10265000400008600846006820F040000860084616
:10266000006820F0400008600846006820F0400044
:1026700008600846006820F04000086008460068CE
:1026800020F0400008600846006820F04000086024
:102690000846006820F0400008600846006820F006
:1026A000400008600846006820F0400008600846C6
:1026B000006820F0400008600846006820F04000F4
:1026C00008600846006820F040000860084600687E
:1026D00020F0400008600846006820F040000860D4
:1026E0000846006820F0400008600846006820F0B6
:1026F000400008600846006820F040000860084676
:10270000006820F0400008600846006820F04000A3
:1027100008600846006820F040000860084600682D
:1027200020F0400008600846006820F04000086083
:102730000846006820F0400008600846006820F065
:10274000400008600846006820F040000860084625
:10275000006820F0400008600846006820F0400053
:1027600008600846006820F04000086008460068DD
:1027700020F0400008600846006820F04000086033
:102780000846006820F0400008600846006820F015
:10279000400008600846006820F0400008600846D5
:1027A000006820F0400008600846006820F0400003
:1027B00008600846006820F040000860084600688D
:1027C00020F0400008600846006820F040000860E3
:1027D0000846006820F0400008600846006820F0C5
:1027E000400008600846006820F040000860084685
:1027F000006820F0400008600846006820F04000B3
:1028000008600846006820F040000860084600683C
:1028100020F0400008600846006820F04000086092
:102820000846006820F0400008600846006820F074
:10283000400008600846006820F040000860084634
:10284000006820F0400008600846006820F0400062
:1028500008600846006820F04000086008460068EC
:1028600020F0400008600846006820F04000086042
:102870000846006820F0400008600846006820F024
:10288000400008600846006820F0400008600846E4
:10289000006820F0400008600846006820F0400012
:1028A00008600846006820F040000860084600689C
:1028B00020F0400008600846006820F040000860F2
:1028C0000846006820F0400008600846006820F0D4
:1028D000400008600846006820F040000860084694
:1028E000006820F0400008600846006820F04000C2
:1028F00008600846006820F040000860084600684C
:1029000020F0400008600846006820F040000860A1
:102910000846006820F0400008600846006820F083
:10292000400008600846006820F040000860084643
:10293000006820F0400008600846006820F0400071
:1029400008600846006820F04000086008460068FB
:1029500020F0400008600846006820F04000086051
:102960000846006820F0400008600846006820F033
:10297000400008600846006820F0400008600846F3
:10298000006820F0400008600846006820F0400021
:1029900008600846006820F04000086008460068AB
:1029A00020F0400008600846006820F04000086001
:1029B0000846006820F0400008600846006820F0E3
:1029C000400008600846006820F0400008600846A3
:1029D000006820F0400008600846006820F04000D1
:1029E00008600846006820F040000860084600685B
:1029F00020F0400008600846006820F040000860B1
:102A00000846006820F0400008600846006820F092
:102A1000400008600846006820F040000860084652
:102A2000006820F0400008600846006820F0400080
:102A300008600846006820F040000860084600680A
:102A400020F0400008600846006820F04000086060
:102A50000846006820F0400008600846006820F042
:102A6000400008600846006820F040000860084602
:102A7000006820F0400008600846006820F0400030
:102A800008600846006820F04000086008460068BA
:102A900020F0400008600846006820F04000086010
:102AA0000846006820F0400008600846006820F0F2
:102AB000400008600846006820F0400008600846B2
:102AC000006820F0400008600846006820F04000E0
:102AD00008600846006820F040000860084600686A
:102AE00020F0400008600846006820F040000860C0
:102AF0000846006820F0400008600846006820F0A2
:102B0000400008600846006820F040000860084661
:102B1000006820F0400008600846006820F040008F
:102B200008600846006820F0400008600846006819
:102B300020F0400008600846006820F0400008606F
:102B40000846006820F0400008600846006820F051
:102B5000400008600846006820F040000860084611
:102B6000006820F0400008600846006820F040003F
:102B700008600846006820F04000086008460068C9
:102B800020F0400008600846006820F0400008601F
:102B90000846006820F0400008600846006820F001
:102BA000400008600846006820F0400008600846C1
:102BB000006820F0400008600846006820F04000EF
:102BC00008600846006820F0400008600846006879
:102BD00020F0400008600846006820F040000860CF
:102BE0000846006820F0400008600846006820F0B1
:102BF000400008600846006820F040000860084671
:102C0000006820F0400008600846006820F040009E
:102C100008600846006820F0400008600846006828
:102C200020F0400008600846006820F0400008607E
:102C30000846006820F0400008600846006820F060
:102C4000400008600846006820F040000860084620
:102C5000006820F0400008600846006820F040004E
:102C600008600846006820F04000086008460068D8
:102C700020F0400008600846006820F0400008602E
:102C80000846006820F0400008600846006820F010
:102C9000400008600846006820F0400008600846D0
:102CA000006820F0400008600846006820F04000FE
:102CB00008600846006820F0400008600846006888
:102CC00020F0400008600846006820F040000860DE
:102CD0000846006820F0400008600846006820F0C0
:102CE000400008600846006820F040000860084680
:102CF000006820F0400008600846006820F04000AE
:102D000008600846006820F0400008600846006837
:102D100020F0400008600846006820F0400008608D
:102D20000846006820F0400008600846006820F06F
:102D3000400008600846006820F04000086008462F
:102D4000006820F0400008600846006820F040005D
:102D500008600846006820F04000086008460068E7
:102D600020F0400008600846006820F0400008603D
:102D70000846006820F0400008600846006820F01F
:102D8000400008600846006820F0400008600846DF
:102D9000006820F0400008600846006820F040000D
:102DA00008600846006820F0400008600846006897
:102DB00020F0400008600846006820F040000860ED
:102DC0000846006820F0400008600846006820F0CF
:102DD000400008600846006820F04000086008468F
:102DE000006820F0400008600846006820F04000BD
:102DF00008600846006820F0400008600846006847
:102E000020F0400008600846006820F0400008609C
:102E10000846006820F0400008600846006820F07E
:102E2000400008600846006820F04000086008463E
:102E3000006820F0400008600846006820F040006C
:102E400008600846006820F04000086008460068F6
:102E500020F0400008600846006820F0400008604C
:102E60000846006820F0400008600846006820F02E
:102E7000400008600846006820F0400008600846EE
:102E8000006820F0400008600846006820F040001C
:102E900008600846006820F04000086008460068A6
:102EA00020F0400008600846006820F040000860FC
:102EB0000846006820F0400008600846006820F0DE
:102EC000400008600846006820F04000086008469E
:102ED000006820F0400008600846006820F04000CC
:102EE00008600846006820F0400008600846006856
:102EF00020F0400008600846006820F040000860AC
:102F00000846006820F0400008600846006820F08D
:102F1000400008600846006820F04000086008464D
:102F2000006820F0400008600846006820F040007B
:102F300008600846006820F0400008600846006805
:102F400020F0400008600846006820F0400008605B
:102F50000846006820F0400008600846006820F03D
:102F6000400008600846006820F0400008600846FD
:102F7000006820F0400008600846006820F040002B
:102F800008600846006820F04000086008460068B5
:102F900020F0400008600846006820F0400008600B
:102FA0000846006820F0400008600846006820F0ED
:102FB000400008600846006820F0400008600846AD
:102FC000006820F0400008600846006820F04000DB
:102FD00008600846006820F0400008600846006865
:102FE00020F0400008600846006820F040000860BB
:102FF0000846006820F0400008600846006820F09D
:10300000400008600846006820F04000086008465C
:10301000006820F0400008600846006820F040008A
:1030200008600846006820F0400008600846006814
:1030300020F0400008600846006820F0400008606A
:103040000846006820F0400008600846006820F04C
:10305000400008600846006820F04000086008460C
:10306000006820F0400008600846006820F040003A
:1030700008600846006820F04000086008460068C4
:1030800020F0400008600846006820F0400008601A
:103090000846006820F0400008600846006820F0FC
:1030A000400008600846006820F0400008600846BC
:1030B000006820F0400008600846006820F04000EA
:1030C00008600846006820F0400008600846006874
:1030D00020F0400008600846006820F040000860CA
:1030E0000846006820F0400008600846006820F0AC
:1030F000400008600846006820F04000086008466C
:10310000006820F0400008600846006820F0400099
:1031100008600846006820F0400008600846006823
:1031200020F0400008600846006820F04000086079
:103130000846006820F0400008600846006820F05B
:10314000400008600846006820F04000086008461B
:10315000006820F0400008600846006820F0400049
:1031600008600846006820F04000086008460068D3
:1031700020F0400008600846006820F04000086029
:103180000846006820F0400008600846006820F00B
:10319000400008600846006820F0400008600846CB
:1031A000006820F0400008600846006820F04000F9
:1031B00008600846006820F0400008600846006883
:1031C00020F0400008600846006820F040000860D9
:1031D0000846006820F0400008600846006820F0BB
:1031E000400008600846006820F04000086008467B
:1031F000006820F0400008600846006820F04000A9
:1032000008600846006820F0400008600846006832
:1032100020F0400008600846006820F04000086088
:103220000846006820F0400008600846006820F06A
:10323000400008600846006820F04000086008462A
:10324000006820F0400008600846006820F0400058
:1032500008600846006820F04000086008460068E2
:1032600020F0400008600846006820F04000086038
:103270000846006820F0400008600846006820F01A
:10328000400008600846006820F0400008600846DA
:10329000006820F0400008600846006820F0400008
:1032A00008600846006820F0400008600846006892
:1032B00020F0400008600846006820F040000860E8
:1032C0000846006820F0400008600846006820F0CA
:1032D000400008600846006820F04000086008468A
:1032E000006820F0400008600846006820F04000B8
:1032F00008600846006820F0400008600846006842
:1033000020F0400008600846006820F04000086097
:103310000846006820F0400008600846006820F079
:10332000400008600846006820F040000860084639
:10333000006820F0400008600846006820F0400067
:1033400008600846006820F04000086008460068F1
:1033500020F0400008600846006820F04000086047
:103360000846006820F0400008600846006820F029
:10337000400008600846006820F0400008600846E9
:10338000006820F0400008600846006820F0400017
:1033900008600846006820F04000086008460068A1
:1033A00020F0400008600846006820F040000860F7
:1033B0000846006820F0400008600846006820F0D9
:1033C000400008600846006820F040000860084699
:1033D000006820F0400008600846006820F04000C7
:1033E00008600846006820F0400008600846006851
:1033F00020F0400008600846006820F040000860A7
:103400000846006820F0400008600846006820F088
:10341000400008600846006820F040000860084648
:10342000006820F0400008600846006820F0400076
:1034300008600846006820F0400008600846006800
:1034400020F0400008600846006820F04000086056
:103450000846006820F0400008600846006820F038
:10346000400008600846006820F0400008600846F8
:10347000006820F0400008600846006820F0400026
:1034800008600846006820F04000086008460068B0
:1034900020F0400008600846006820F04000086006
:1034A0000846006820F0400008600846006820F0E8
:1034B000400008600846006820F0400008600846A8
:1034C000006820F0400008600846006820F04000D6
:1034D00008600846006820F0400008600846006860
:1034E00020F0400008600846006820F040000860B6
:1034F0000846006820F0400008600846006820F098
:10350000400008600846006820F040000860084657
:10351000006820F0400008600846006820F0400085
:1035200008600846006820F040000860084600680F
:1035300020F0400008600846006820F04000086065
:103540000846006820F0400008600846006820F047
:10355000400008600846006820F040000860084607
:10356000006820F0400008600846006820F0400035
:1035700008600846006820F04000086008460068BF
:1035800020F0400008600846006820F04000086015
:103590000846006820F0400008600846006820F0F7
:1035A000400008600846006820F0400008600846B7
:1035B000006820F0400008600846006820F04000E5
:1035C00008600846006820F040000860084600686F
:1035D00020F0400008600846006820F040000860C5
:1035E0000846006820F0400008600846006820F0A7
:1035F000400008600846006820F040000860084667
:10360000006820F0400008600846006820F0400094
:1036100008600846006820F040000860084600681E
:1036200020F0400008600846006820F04000086074
:103630000846006820F0400008600846006820F056
:10364000400008600846006820F040000860084616
:10365000006820F0400008600846006820F0400044
:1036600008600846006820F04000086008460068CE
:1036700020F0400008600846006820F04000086024
:103680000846006820F0400008600846006820F006
:10369000400008600846006820F0400008600846C6
:1036A000006820F0400008600846006820F04000F4
:1036B00008600846006820F040000860084600687E
:1036C00020F0400008600846006820F040000860D4
:1036D0000846006820F0400008600846006820F0B6
:1036E000400008600846006820F040000860084676
:1036F000006820F0400008600846006820F04000A4
:1037000008600846006820F040000860084600682D
:1037100020F0400008600846006820F04000086083
:103720000846006820F0400008600846006820F065
:10373000400008600846006820F040000860084625
:10374000006820F0400008600846006820F0400053
:1037500008600846006820F04000086008460068DD
:1037600020F0400008600846006820F04000086033
:103770000846006820F0400008600846006820F015
:10378000400008600846006820F0400008600846D5
:10379000006820F0400008600846006820F0400003
:1037A00008600846006820F040000860084600688D
:1037B00020F0400008600846006820F040000860E3
:1037C0000846006820F0400008600846006820F0C5
:1037D000400008600846006820F040000860084685
:1037E000006820F0400008600846006820F04000B3
:1037F00008600846006820F040000860084600683D
:1038000020F0400008600846006820F04000086092
:103810000846006820F0400008600846006820F074
:10382000400008600846006820F040000860084634
:10383000006820F0400008600846006820F0400062
:1038400008600846006820F04000086008460068EC
:1038500020F0400008600846006820F04000086042
:103860000846006820F0400008600846006820F024
:10387000400008600846006820F0400008600846E4
:10388000006820F0400008600846006820F0400012
:1038900008600846006820F040000860084600689C
:1038A00020F0400008600846006820F040000860F2
:1038B0000846006820F0400008600846006820F0D4
:1038C000400008600846006820F040000860084694
:1038D000006820F0400008600846006820F04000C2
:1038E00008600846006820F040000860084600684C
:1038F00020F0400008600846006820F040000860A2
:103900000846006820F0400008600846006820F083
:10391000400008600846006820F040000860084643
:10392000006820F0400008600846006820F0400071
:1039300008600846006820F04000086008460068FB
:1039400020F0400008600846006820F04000086051
:103950000846006820F0400008600846006820F033
:10396000400008600846006820F0400008600846F3
:10397000006820F0400008600846006820F0400021
:1039800008600846006820F04000086008460068AB
:1039900020F0400008600846006820F04000086001
:1039A0000846006820F0400008600846006820F0E3
:1039B000400008600846006820F0400008600846A3
:1039C000006820F0400008600846006820F04000D1
:1039D00008600846006820F040000860084600685B
:1039E00020F0400008600846006820F040000860B1
:1039F0000846006820F0400008600846006820F093
:103A0000400008600846006820F040000860084652
:103A1000006820F0400008600846006820F0400080
:103A200008600846006820F040000860084600680A
:103A300020F0400008600846006820F04000086060
:103A4000704700B50246102A73D00DDC062A4ED00E
:103A500005DCCAB1022A28D0042A25D136E0082A7A
:103A600056D00C2AF9D165E0402A74D006DC182A19
:103A700072D0202A71D0302AEFD1A3E0802A6DD0F5
:103A8000B2F5807FE9D1D0E0FEF798FBFEF796FB18
:103A9000FEF794FBFEF792FBFEF790FBFEF78EFB22
:103AA000FEF78CFBFEF78AFBD0E0FEF787FBFEF704
:103AB00085FBFEF783FBFEF781FBFEF77FFBFEF73E
:103AC0007DFBFEF77BFBFEF748FBBFE0FEF776FBD6
:103AD000FEF774FBFEF772FBFEF770FBFEF76EFB62
:103AE000FEF76CFBFEF739FBFEF737FBAEE0FEF7A7
:103AF00065FBFEF763FBFEF761FBFEF75FFBFEF77E
:103B00005DFBFEF72AFBFEF759FBFEF726FB9DE067
:103B1000FEF754FBFEF752FBFEF750FBFEF74EFBA1
:103B2000FEF74CFBFEF719FBFEF717FBFEF715FB44
:103B30008CE014E0FEF742FBFEF740FBFEF73EFB95
:103B4000FEF73CFBFEF709FBFEF738FBFEF705FB33
:103B5000FEF703FB7AE046E012E022E054E0FEF7D5
:103B60002DFBFEF72BFBFEF729FBFEF727FBFEF7ED
:103B7000F4FAFEF7F2FAFEF7F0FAFEF7EEFA65E075
:103B8000FEF71CFBFEF71AFBFEF718FBFEF7E5FA43
:103B9000FEF714FBFEF7E1FAFEF7DFFAFEF7DDFAB7
:103BA00054E0FEF70BFBFEF709FBFEF707FBFEF701
:103BB000D4FAFEF7D2FAFEF7D0FAFEF7CEFAFEF705
:103BC000CCFA43E0FEF7FAFAFEF7F8FAFEF7C5FA88
:103BD000FEF7F4FAFEF7C1FAFEF7BFFAFEF7BDFAF8
:103BE000FEF7BBFA32E0FEF7E9FAFEF7E7FAFEF776
:103BF000B4FAFEF7B2FAFEF7B0FAFEF7AEFAFEF745
:103C0000ACFAFEF7AAFA21E0FEF7D8FAFEF7A5FA19
:103C1000FEF7A3FAFEF7A1FAFEF79FFAFEF79DFA68
:103C2000FEF79BFAFEF799FA10E0FEF796FAFEF718
:103C300094FAFEF792FAFEF790FAFEF78EFAFEF784
:103C40008CFAFEF78AFAFEF788FA00BF00BF00BDC3
:103C500000B50020FFF7F5FE0020FFF7F2FE002080
:103C6000FFF7EFFE00BD00B5FB480068FFF7E9FE77
:103C70000020FFF7E6FE0020FFF7E3FE00BD00B5E1
:103C80000020FFF7DEFEF4480068FFF7DAFE0020B0
:103C9000FFF7D7FE00BD00B50020FFF7D2FE0020E1
:103CA000FFF7CFFEEC480068FFF7CBFE00BD00B584
:103CB0000020FFF7C6FEE8480068FFF7C2FEE648AE
:103CC0000368D91703EB91718810FFF7BAFE00BDA6
:103CD00000B50020FFF7B5FEDF480068FFF7B1FE32
:103CE000DD48036803EBD3714810FFF7AAFE00BD5F
:103CF00000B50020FFF7A5FED7480068FFF7A1FE3A
:103D0000D5490B68D91703EB9171891001EB41007C
:103D1000FFF797FE00BD00B50020FFF792FECE48EA
:103D20000068FFF78EFECC480068FFF78AFE00BDF2
:103D300000B50020FFF785FEC7490B68D91703EBD4
:103D40009171891001EB4100FFF77BFEC2480068CA
:103D5000FFF777FE00BD00B50020FFF772FEBE48FA
:103D6000036803EBD3714810FFF76BFEBA48006895
:103D7000FFF767FE00BD00B50020FFF762FEB64802
:103D80000368D91703EB91718810FFF75AFEB24808
:103D90000068FFF756FE00BD00B5AF480368D917AD
:103DA00003EB91718810FFF74CFE0020FFF749FEEE
:103DB000A9480068FFF745FE00BD00B5A6480368A6
:103DC00003EBD3714810FFF73CFE0020FFF739FEEC
:103DD000A1480068FFF735FE00BD00B59E490B689D
:103DE000D91703EB9171891001EB4100FFF729FE10
:103DF0000020FFF726FE98480068FFF722FE00BD6E
:103E000000B595480068FFF71CFE0020FFF719FE7B
:103E100091480068FFF715FE00BD00B58E480068A8
:103E2000FFF70FFE0020FFF70CFE8B480068FFF73E
:103E300008FE00BD00B588480068FFF702FE0020BC
:103E4000FFF7FFFD8448036803EBD3714810FFF7C9
:103E5000F8FD00BD00B580480068FFF7F2FD0020C6
:103E6000FFF7EFFD7C480368D91703EB91718810C9
:103E7000FFF7E7FD00BD00B577480068FFF7E1FDFB
:103E800075480368D91703EB91718810FFF7D9FDC6
:103E90000020FFF7D6FD00BD00B56F480068FFF7B2
:103EA000D0FD6D48036803EBD3714810FFF7C9FDDF
:103EB0000020FFF7C6FD00BD00B567480068FFF7AA
:103EC000C0FD65490B68D91703EB9171891001EBAF
:103ED0004100FFF7B6FD0020FFF7B3FD00BD00B5C0
:103EE0005D480068FFF7ADFD5B480068FFF7A9FD7E
:103EF0000020FFF7A6FD00BD00B557490B68D91794
:103F000003EB9171891001EB4100FFF79AFD5248D4
:103F10000068FFF796FD0020FFF793FD00BD00B598
:103F20004D48036803EBD3714810FFF78AFD4A48F8
:103F30000068FFF786FD0020FFF783FD00BD00B598
:103F400045480368D91703EB91718810FFF779FD95
:103F500041480068FFF775FD0020FFF772FD00BDC6
:103F60002DE9F04F04460D4616461F46DDE90BAB22
:103F7000DDE90989FEF753F9092C16D2DFE804F0D0
:103F800005162738495A6E7F9000FFF761FEFFF74C
:103F90005FFEFFF75DFEFFF75BFEFFF759FEFFF7E1
:103FA00057FEFFF755FEFFF753FE8AE0FFF750FE7E
:103FB000FFF74EFEFFF74CFEFFF74AFEFFF748FE05
:103FC000FFF746FEFFF744FEFFF74DFE79E0FFF7EF
:103FD0003FFEFFF73DFEFFF73BFEFFF739FEFFF721
:103FE00037FEFFF735FEFFF725FFFFF73CFE68E0E1
:103FF000FFF72EFEFFF72CFEFFF72AFEFFF728FE45
:10400000FFF726FEFFF7E9FEFFF714FFFFF72BFE91
:1040100057E0FFF71DFEFFF71BFEFFF719FEFFF746
:1040200017FEFFF738FEFFF7D8FEFFF703FFFFF795
:104030001AFE46E0FFF70CFEFFF70AFEFFF708FE48
:10404000FFF799FEFFF727FEFFF7C7FEFFF7F2FE27
:10405000FFF709FE35E0000048000020FFF7F8FDFB
:10406000FFF7F6FDFFF757FEFFF785FEFFF713FE9C
:10407000FFF7B3FEFFF7DEFEFFF7F5FD21E0FFF7E8
:10408000E7FDFFF725FEFFF746FEFFF774FEFFF79B
:1040900002FEFFF7A2FEFFF7CDFEFFF7E4FD10E002
:1040A000FFF7EDFDFFF714FEFFF735FEFFF763FEA8
:1040B000FFF7F1FDFFF791FEFFF7BCFEFFF7D3FD21
:1040C00000BF00BF092D16D2DFE805F0051627381E
:1040D000495A6B7C8D00FFF7BBFDFFF7B9FDFFF779
:1040E000B7FDFFF7B5FDFFF7B3FDFFF7B1FDFFF734
:1040F000AFFDFFF7ADFD87E0FFF7AAFDFFF7A8FDD5
:10410000FFF7A6FDFFF7A4FDFFF7A2FDFFF7A0FD57
:10411000FFF79EFDFFF7A7FD76E0FFF799FDFFF79C
:1041200097FDFFF795FDFFF793FDFFF791FDFFF773
:104130008FFDFFF77FFEFFF796FD65E0FFF788FD37
:10414000FFF786FDFFF784FDFFF782FDFFF780FD97
:10415000FFF743FEFFF76EFEFFF785FD54E0FFF724
:1041600077FDFFF775FDFFF773FDFFF771FDFFF7B3
:1041700092FDFFF732FEFFF75DFEFFF774FD43E0AF
:10418000FFF766FDFFF764FDFFF762FDFFF7F3FD44
:10419000FFF781FDFFF721FEFFF74CFEFFF763FD00
:1041A00032E0FFF755FDFFF753FDFFF7B4FDFFF7D2
:1041B000E2FDFFF770FDFFF710FEFFF73BFEFFF794
:1041C00052FD21E0FFF744FDFFF782FDFFF7A3FD5D
:1041D000FFF7D1FDFFF75FFDFFF7FFFDFFF72AFEB9
:1041E000FFF741FD10E0FFF74AFDFFF771FDFFF714
:1041F00092FDFFF7C0FDFFF74EFDFFF7EEFDFFF765
:1042000019FEFFF730FD00BF00BF092E16D2DFE810
:1042100006F005162738495A6B7C8D00FFF718FD0C
:10422000FFF716FDFFF714FDFFF712FDFFF710FD76
:10423000FFF70EFDFFF70CFDFFF70AFD87E0FFF724
:1042400007FDFFF705FDFFF703FDFFF701FDFFF792
:10425000FFFCFFF7FDFCFFF7FBFCFFF704FD76E03A
:10426000FFF7F6FCFFF7F4FCFFF7F2FCFFF7F0FCBA
:10427000FFF7EEFCFFF7ECFCFFF7DCFDFFF7F3FCCC
:1042800065E0FFF7E5FCFFF7E3FCFFF7E1FCFFF774
:10429000DFFCFFF7DDFCFFF7A0FDFFF7CBFDFFF72D
:1042A000E2FC54E0FFF7D4FCFFF7D2FCFFF7D0FCB0
:1042B000FFF7CEFCFFF7EFFCFFF78FFDFFF7BAFD2E
:1042C000FFF7D1FC43E0FFF7C3FCFFF7C1FCFFF7AA
:1042D000BFFCFFF750FDFFF7DEFCFFF77EFDFFF7A9
:1042E000A9FDFFF7C0FC32E0FFF7B2FCFFF7B0FC1E
:1042F000FFF711FDFFF73FFDFFF7CDFCFFF76DFD69
:10430000FFF798FDFFF7AFFC21E0FFF7A1FCFFF7F7
:10431000DFFCFFF700FDFFF72EFDFFF7BCFCFFF70A
:104320005CFDFFF787FDFFF79EFC10E0FFF7A7FCA1
:10433000FFF7CEFCFFF7EFFCFFF71DFDFFF7ABFC2F
:10434000FFF74BFDFFF776FDFFF78DFC00BF00BFC9
:10435000092F16D2DFE807F005162738495A6B7C7B
:104360008D00FFF775FCFFF773FCFFF771FCFFF79B
:104370006FFCFFF76DFCFFF76BFCFFF769FCFFF7C5
:1043800067FC87E0FFF764FCFFF762FCFFF760FC67
:10439000FFF75EFCFFF75CFCFFF75AFCFFF758FCE9
:1043A000FFF761FC76E0FFF753FCFFF751FCFFF7E6
:1043B0004FFCFFF74DFCFFF74BFCFFF749FCFFF705
:1043C00039FDFFF750FC65E0FFF742FCFFF740FCCA
:1043D000FFF73EFCFFF73CFCFFF73AFCFFF7FDFC64
:1043E000FFF728FDFFF73FFC54E0FFF731FCFFF734
:1043F0002FFCFFF72DFCFFF72BFCFFF74CFCFFF722
:10440000ECFCFFF717FDFFF72EFC43E0FFF720FC65
:10441000FFF71EFCFFF71CFCFFF7ADFCFFF73BFCB2
:10442000FFF7DBFCFFF706FDFFF71DFC32E0FFF7AF
:104430000FFCFFF70DFCFFF76EFCFFF79CFCFFF78E
:104440002AFCFFF7CAFCFFF7F5FCFFF70CFC21E0A4
:10445000FFF7FEFBFFF73CFCFFF75DFCFFF78BFC73
:10446000FFF719FCFFF7B9FCFFF7E4FCFFF7FBFBD4
:1044700010E0FFF704FCFFF72BFCFFF74CFCFFF705
:104480007AFCFFF708FCFFF7A8FCFFF7D3FCFFF767
:10449000EAFB00BF00BFB8F1090F16D2DFE808F051
:1044A00005162738495A6B7C8D00FFF7D1FBFFF7C3
:1044B000CFFBFFF7CDFBFFF7CBFBFFF7C9FBFFF708
:1044C000C7FBFFF7C5FBFFF7C3FB87E0FFF7C0FBA8
:1044D000FFF7BEFBFFF7BCFBFFF7BAFBFFF7B8FB2C
:1044E000FFF7B6FBFFF7B4FBFFF7BDFB76E0FFF786
:1044F000AFFBFFF7ADFBFFF7ABFBFFF7A9FBFFF748
:10450000A7FBFFF7A5FBFFF795FCFFF7ACFB65E00A
:10451000FFF79EFBFFF79CFBFFF79AFBFFF798FB6B
:10452000FFF796FBFFF759FCFFF784FCFFF79BFBB7
:1045300054E0FFF78DFBFFF78BFBFFF789FBFFF7DD
:1045400087FBFFF7A8FBFFF748FCFFF773FCFFF7BB
:104550008AFB43E0FFF77CFBFFF77AFBFFF778FB72
:10456000FFF709FCFFF797FBFFF737FCFFF762FC4B
:10457000FFF779FB32E0FFF76BFBFFF769FBFFF713
:10458000CAFBFFF7F8FBFFF786FBFFF726FCFFF7F8
:1045900051FCFFF768FB21E0FFF75AFBFFF798FBA0
:1045A000FFF7B9FBFFF7E7FBFFF775FBFFF715FC1C
:1045B000FFF740FCFFF757FB10E0FFF760FBFFF74A
:1045C00087FBFFF7A8FBFFF7D6FBFFF764FBFFF7BE
:1045D00004FCFFF72FFCFFF746FB00BF00BFB9F15B
:1045E000090F16D2DFE809F005162738495A6B7C07
:1045F0008D00FFF72DFBFFF72BFBFFF729FBFFF7E4
:1046000027FBFFF725FBFFF723FBFFF721FBFFF756
:104610001FFB87E0FFF71CFBFFF71AFBFFF718FBF8
:10462000FFF716FBFFF714FBFFF712FBFFF710FB7A
:10463000FFF719FB76E0FFF70BFBFFF709FBFFF72E
:1046400007FBFFF705FBFFF703FBFFF701FBFFF796
:10465000F1FBFFF708FB65E0FFF7FAFAFFF7F8FA5E
:10466000FFF7F6FAFFF7F4FAFFF7F2FAFFF7B5FBF8
:10467000FFF7E0FBFFF7F7FA54E0FFF7E9FAFFF77F
:10468000E7FAFFF7E5FAFFF7E3FAFFF704FBFFF7B6
:10469000A4FBFFF7CFFBFFF7E6FA43E0FFF7D8FAFA
:1046A000FFF7D6FAFFF7D4FAFFF765FBFFF7F3FA47
:1046B000FFF793FBFFF7BEFBFFF7D5FA32E0FFF7FA
:1046C000C7FAFFF7C5FAFFF726FBFFF754FBFFF722
:1046D000E2FAFFF782FBFFF7ADFBFFF7C4FA21E038
:1046E000FFF7B6FAFFF7F4FAFFF715FBFFF743FB06
:1046F000FFF7D1FAFFF771FBFFF79CFBFFF7B3FA67
:1047000010E0FFF7BCFAFFF7E3FAFFF704FBFFF74F
:1047100032FBFFF7C0FAFFF760FBFFF78BFBFFF7F9
:10472000A2FA00BF00BFBAF1090F16D2DFE80AF003
:1047300005162738495A6B7C8D00FFF789FAFFF779
:1047400087FAFFF785FAFFF783FAFFF781FAFFF799
:104750007FFAFFF77DFAFFF77BFA87E0FFF778FA39
:10476000FFF776FAFFF774FAFFF772FAFFF770FABD
:10477000FFF76EFAFFF76CFAFFF775FA76E0FFF7CE
:1047800067FAFFF765FAFFF763FAFFF761FAFFF7D9
:104790005FFAFFF75DFAFFF74DFBFFF764FA65E09C
:1047A000FFF756FAFFF754FAFFF752FAFFF750FAFD
:1047B000FFF74EFAFFF711FBFFF73CFBFFF753FA49
:1047C00054E0FFF745FAFFF743FAFFF741FAFFF726
:1047D0003FFAFFF760FAFFF700FBFFF72BFBFFF74D
:1047E00042FA43E0FFF734FAFFF732FAFFF730FA04
:1047F000FFF7C1FAFFF74FFAFFF7EFFAFFF71AFBDF
:10480000FFF731FA32E0FFF723FAFFF721FAFFF75B
:1048100082FAFFF7B0FAFFF73EFAFFF7DEFAFFF78A
:1048200009FBFFF720FA21E0FFF712FAFFF750FA31
:10483000FFF771FAFFF79FFAFFF72DFAFFF7CDFAAE
:10484000FFF7F8FAFFF70FFA10E0FFF718FAFFF793
:104850003FFAFFF760FAFFF78EFAFFF71CFAFFF74F
:10486000BCFAFFF7E7FAFFF7FEF900BF00BFBBF1A4
:10487000090F16D2DFE80BF005162738495A6B7C72
:104880008D00FFF7E5F9FFF7E3F9FFF7E1F9FFF72F
:10489000DFF9FFF7DDF9FFF7DBF9FFF7D9F9FFF7EC
:1048A000D7F987E0FFF7D4F9FFF7D2F9FFF7D0F98E
:1048B000FFF7CEF9FFF7CCF9FFF7CAF9FFF7C8F910
:1048C000FFF7D1F976E0FFF7C3F9FFF7C1F9FFF77A
:1048D000BFF9FFF7BDF9FFF7BBF9FFF7B9F9FFF72C
:1048E000A9FAFFF7C0F965E0FFF7B2F9FFF7B0F9F1
:1048F000FFF7AEF9FFF7ACF9FFF7AAF9FFF76DFA8A
:10490000FFF798FAFFF7AFF954E0FFF7A1F9FFF7C7
:104910009FF9FFF79DF9FFF79BF9FFF7BCF9FFF748
:104920005CFAFFF787FAFFF79EF943E0FFF790F98B
:10493000FFF78EF9FFF78CF9FFF71DFAFFF7ABF9D8
:10494000FFF74BFAFFF776FAFFF78DF932E0FFF742
:104950007FF9FFF77DF9FFF7DEF9FFF70CFAFFF7B4
:104960009AF9FFF73AFAFFF765FAFFF77CF921E0C9
:10497000FFF76EF9FFF7ACF9FFF7CDF9FFF7FBF999
:10498000FFF789F9FFF729FAFFF754FAFFF76BF9F8
:1049900010E0FFF774F9FFF79BF9FFF7BCF9FFF799
:1049A000EAF9FFF778F9FFF718FAFFF743FAFFF78C
:1049B0005AF900BF00BF0D98092816D2DFE800F0B1
:1049C00005162738495A6B7C8D00FFF741F9FFF730
:1049D0003FF9FFF73DF9FFF73BF9FFF739F9FFF72B
:1049E00037F9FFF735F9FFF733F987E0FFF730F9CB
:1049F000FFF72EF9FFF72CF9FFF72AF9FFF728F94F
:104A0000FFF726F9FFF724F9FFF72DF976E0FFF716
:104A10001FF9FFF71DF9FFF71BF9FFF719F9FFF76A
:104A200017F9FFF715F9FFF705FAFFF71CF965E02D
:104A3000FFF70EF9FFF70CF9FFF70AF9FFF708F98E
:104A4000FFF706F9FFF7C9F9FFF7F4F9FFF70BF9DC
:104A500054E0FFF7FDF8FFF7FBF8FFF7F9F8FFF771
:104A6000F7F8FFF718F9FFF7B8F9FFF7E3F9FFF7E1
:104A7000FAF843E0FFF7ECF8FFF7EAF8FFF7E8F899
:104A8000FFF779F9FFF707F9FFF7A7F9FFF7D2F971
:104A9000FFF7E9F832E0FFF7DBF8FFF7D9F8FFF7A7
:104AA0003AF9FFF768F9FFF7F6F8FFF796F9FFF71D
:104AB000C1F9FFF7D8F821E0FFF7CAF8FFF708F9C6
:104AC000FFF729F9FFF757F9FFF7E5F8FFF785F941
:104AD000FFF7B0F9FFF7C7F810E0FFF7D0F8FFF7DE
:104AE000F7F8FFF718F9FFF746F9FFF7D4F8FFF7E3
:104AF00074F9FFF79FF9FFF7B6F800BF00BF0E98F3
:104B0000092816D2DFE800F005162738495A6B7CD1
:104B10008D00FFF79DF8FFF79BF8FFF799F8FFF777
:104B200097F8FFF795F8FFF793F8FFF791F8FFF77D
:104B30008FF887E0FFF78CF8FFF78AF8FFF788F81F
:104B4000FFF786F8FFF784F8FFF782F8FFF780F8A1
:104B5000FFF789F876E0FFF77BF8FFF779F8FFF7C2
:104B600077F8FFF775F8FFF773F8FFF771F8FFF7BD
:104B700061F9FFF778F865E0FFF76AF8FFF768F882
:104B8000FFF766F8FFF764F8FFF762F8FFF725F91B
:104B9000FFF750F9FFF767F854E0FFF759F8FFF710
:104BA00057F8FFF755F8FFF753F8FFF774F8FFF7DA
:104BB00014F9FFF73FF9FFF756F843E0FFF748F81D
:104BC000FFF746F8FFF744F8FFF7D5F8FFF763F86B
:104BD000FFF703F9FFF72EF9FFF745F832E0FFF78B
:104BE00037F8FFF735F8FFF796F8FFF7C4F8FFF747
:104BF00052F8FFF7F2F8FFF71DF9FFF734F821E05C
:104C0000FFF726F8FFF764F8FFF785F8FFF7B3F82A
:104C1000FFF741F8FFF7E1F8FFF70CF9FFF723F88A
:104C200010E0FFF72CF8FFF753F8FFF774F8FFF7E1
:104C3000A2F8FFF730F8FFF7D0F8FFF7FBF8FFF71F
:104C400012F800BF00BFFE4909684800FDF754FA9A
:104C5000BDE8F08F30B505460C46FDF7E0FA0A2DA9
:104C600082F0B986DFE815F00A005F01B7020B0495
:104C70005F05B306E7091B0D4F108313052C7DD28A
:104C8000DFE804F003A6FDFCFB00FEF7E1FFFEF702
:104C9000DFFFFEF7DDFFFEF7E6FFFEF7E4FFFEF7BE
:104CA000D7FFFEF7D5FFFEF7D3FFFEF7D1FFFEF7E4
:104CB000CFFFFEF7CDFFFEF7D6FFFEF7D4FFFEF7DE
:104CC000C7FFFEF7C5FFFEF7C3FFFEF7C1FFFEF704
:104CD000BFFFFEF7BDFFFEF7C6FFFEF7C4FFFEF7FE
:104CE000B7FFFEF7B5FFFEF7B3FFFEF7B1FFFEF724
:104CF000AFFFFEF7ADFFFEF7B6FFFEF7B4FFFEF71E
:104D0000A7FFFEF7A5FFFEF7A3FFFEF7A1FFFEF743
:104D10009FFFFEF79DFFFEF7A6FFFEF7A4FFFEF73D
:104D200097FFFEF795FFFEF793FFFEF791FFFEF763
:104D30008FFFFEF78DFFFEF796FFFEF794FFFEF75D
:104D400087FFFEF785FFFEF783FFFEF781FFFEF783
:104D50007FFFFEF77DFFFEF786FFFEF784FFFEF77D
:104D600077FFFEF775FFFEF773FFFEF771FFFEF7A3
:104D70006FFFFEF76DFFFEF776FF00E0D0E0FEF775
:104D800072FFFEF765FFFEF763FFFEF761FFFEF7B8
:104D90005FFFFEF75DFFFEF75BFFFEF764FFFEF7C8
:104DA00062FFFEF755FFFEF753FFFEF751FFFEF7D8
:104DB0004FFFFEF74DFFFEF74BFFFEF754FFFEF7E8
:104DC00052FFFEF745FFFEF743FFFEF741FFA7E066
:104DD000FEF73EFFFEF73CFFFEF73AFFFEF738FF17
:104DE000FEF741FFFEF734FFFEF732FFFEF730FF1C
:104DF000FEF72EFFFEF72CFFFEF72AFFFEF733FF2C
:104E0000FEF726FFFEF724FFFEF722FFFEF720FF46
:104E1000FEF71EFFFEF71CFFFEF71AFFFEF718FF56
:104E2000FEF721FFFEF714FFFEF712FFFEF710FF5B
:104E3000FEF70EFFFEF70CFFFEF70AFFFEF713FF6B
:104E4000FEF706FFFEF704FFFEF702FFFEF700FF86
:104E5000FEF7FEFEFEF7FCFEFEF7FAFEFEF7F8FE9A
:104E6000FEF701FFFEF7F4FEFEF7F2FEFEF7F0FE9E
:104E7000FEF7EEFEFEF7ECFE02E050E04EE04CE006
:104E8000FEF7E6FEFEF7EFFEFEF7E2FEFEF7E0FEBF
:104E9000FEF7DEFEFEF7DCFEFEF7DAFEFEF7D8FEDA
:104EA000FEF7D6FEFEF7D4FEFEF7DDFEFEF7D0FEDF
:104EB000FEF7CEFEFEF7CCFEFEF7CAFEFEF7C8FEFA
:104EC000FEF7C6FEFEF7CFFEFEF7C2FEFEF7C0FEFF
:104ED000FEF7BEFEFEF7BCFEFEF7BAFEFEF7B8FE1A
:104EE000FEF7B6FEFEF7B4FEFEF7BDFEFEF7B0FE1F
:104EF000FEF7AEFEFEF7ACFEFEF7AAFEFEF7A8FE3A
:104F0000FEF7A6FEFEF7AFFEFEF7A2FEFEF7A0FE3E
:104F1000FEF79EFEFEF79CFE02E001E000E000BF0F
:104F200000BF02F058BD052C7DD2DFE804F003AAD3
:104F3000FDFCFB00FEF78CFEFEF78AFEFEF788FE06
:104F4000FEF791FEFEF78FFEFEF782FEFEF780FE73
:104F5000FEF77EFEFEF77CFEFEF77AFEFEF778FE99
:104F6000FEF781FEFEF77FFEFEF772FEFEF770FE93
:104F7000FEF76EFEFEF76CFEFEF76AFEFEF768FEB9
:104F8000FEF771FEFEF76FFEFEF762FEFEF760FEB3
:104F9000FEF75EFEFEF75CFEFEF75AFEFEF758FED9
:104FA000FEF761FEFEF75FFEFEF752FEFEF750FED3
:104FB000FEF74EFEFEF74CFEFEF74AFEFEF748FEF9
:104FC000FEF751FEFEF74FFEFEF742FEFEF740FEF3
:104FD000FEF73EFEFEF73CFEFEF73AFEFEF738FE19
:104FE000FEF741FEFEF73FFEFEF732FEFEF730FE13
:104FF000FEF72EFEFEF72CFEFEF72AFEFEF728FE39
:10500000FEF731FEFEF72FFEFEF722FEFEF720FE32
:10501000FEF71EFEFEF71CFEFEF71AFEFEF718FE58
:10502000FEF721FE00E0D4E0FEF71DFEFEF710FEC5
:10503000FEF70EFEFEF70CFEFEF70AFE02E0000091
:1050400040000020FEF704FEFEF702FEFEF70BFE16
:10505000FEF709FEFEF7FCFDFEF7FAFDFEF7F8FD90
:10506000FEF7F6FDFEF7F4FDFEF7F2FDFEF7FBFDA1
:10507000FEF7F9FDFEF7ECFDFEF7EAFDFEF7E8FDB1
:10508000A7E0FEF7E5FDFEF7E3FDFEF7E1FDFEF725
:10509000DFFDFEF7E8FDFEF7DBFDFEF7D9FDFEF7CD
:1050A000D7FDFEF7D5FDFEF7D3FDFEF7D1FDFEF7E8
:1050B000DAFDFEF7CDFDFEF7CBFDFEF7C9FDFEF7ED
:1050C000C7FDFEF7C5FDFEF7C3FDFEF7C1FDFEF708
:1050D000BFFDFEF7C8FDFEF7BBFDFEF7B9FDFEF70D
:1050E000B7FDFEF7B5FDFEF7B3FDFEF7B1FDFEF728
:1050F000BAFDFEF7ADFDFEF7ABFDFEF7A9FDFEF72D
:10510000A7FDFEF7A5FDFEF7A3FDFEF7A1FDFEF747
:105110009FFDFEF7A8FDFEF79BFDFEF799FDFEF74C
:1051200097FD02E054E052E050E0FEF791FDFEF7FB
:105130008FFDFEF78DFDFEF796FDFEF789FDFEF76C
:1051400087FDFEF785FDFEF783FDFEF781FDFEF787
:105150007FFDFEF77DFDFEF77BFDFEF784FDFEF78C
:1051600077FDFEF775FDFEF773FDFEF771FDFEF7A7
:105170006FFDFEF76DFDFEF776FDFEF769FDFEF7AC
:1051800067FDFEF765FDFEF763FDFEF761FDFEF7C7
:105190005FFDFEF75DFDFEF75BFDFEF764FDFEF7CC
:1051A00057FDFEF755FDFEF753FDFEF751FDFEF7E7
:1051B0004FFDFEF74DFDFEF756FDFEF749FDFEF7EC
:1051C00047FDFEF745FDFEF743FD02E001E000E08C
:1051D00000BF00BFA5E6052C7DD2DFE804F003A6E2
:1051E000FDFCFB00FEF734FDFEF732FDFEF730FD5F
:1051F000FEF739FDFEF737FDFEF72AFDFEF728FD25
:10520000FEF726FDFEF724FDFEF722FDFEF720FD4A
:10521000FEF729FDFEF727FDFEF71AFDFEF718FD44
:10522000FEF716FDFEF714FDFEF712FDFEF710FD6A
:10523000FEF719FDFEF717FDFEF70AFDFEF708FD64
:10524000FEF706FDFEF704FDFEF702FDFEF700FD8A
:10525000FEF709FDFEF707FDFEF7FAFCFEF7F8FC86
:10526000FEF7F6FCFEF7F4FCFEF7F2FCFEF7F0FCAE
:10527000FEF7F9FCFEF7F7FCFEF7EAFCFEF7E8FCA8
:10528000FEF7E6FCFEF7E4FCFEF7E2FCFEF7E0FCCE
:10529000FEF7E9FCFEF7E7FCFEF7DAFCFEF7D8FCC8
:1052A000FEF7D6FCFEF7D4FCFEF7D2FCFEF7D0FCEE
:1052B000FEF7D9FCFEF7D7FCFEF7CAFCFEF7C8FCE8
:1052C000FEF7C6FCFEF7C4FCFEF7C2FCFEF7C0FC0E
:1052D000FEF7C9FC00E0D0E0FEF7C5FCFEF7B8FC25
:1052E000FEF7B6FCFEF7B4FCFEF7B2FCFEF7B0FC2E
:1052F000FEF7AEFCFEF7B7FCFEF7B5FCFEF7A8FC28
:10530000FEF7A6FCFEF7A4FCFEF7A2FCFEF7A0FC4D
:10531000FEF79EFCFEF7A7FCFEF7A5FCFEF798FC47
:10532000FEF796FCFEF794FCA7E0FEF791FCFEF773
:105330008FFCFEF78DFCFEF78BFCFEF794FCFEF76E
:1053400087FCFEF785FCFEF783FCFEF781FCFEF789
:105350007FFCFEF77DFCFEF786FCFEF779FCFEF78E
:1053600077FCFEF775FCFEF773FCFEF771FCFEF7A9
:105370006FFCFEF76DFCFEF76BFCFEF774FCFEF7AE
:1053800067FCFEF765FCFEF763FCFEF761FCFEF7C9
:105390005FFCFEF75DFCFEF766FCFEF759FCFEF7CE
:1053A00057FCFEF755FCFEF753FCFEF751FCFEF7E9
:1053B0004FFCFEF74DFCFEF74BFCFEF754FCFEF7EE
:1053C00047FCFEF745FCFEF743FCFEF741FCFEF709
:1053D0003FFC02E050E04EE04CE0FEF739FCFEF707
:1053E00042FCFEF735FCFEF733FCFEF731FCFEF71E
:1053F0002FFCFEF72DFCFEF72BFCFEF729FCFEF739
:1054000027FCFEF730FCFEF723FCFEF721FCFEF73D
:105410001FFCFEF71DFCFEF71BFCFEF719FCFEF758
:1054200022FCFEF715FCFEF713FCFEF711FCFEF75D
:105430000FFCFEF70DFCFEF70BFCFEF709FCFEF778
:1054400007FCFEF710FCFEF703FCFEF701FCFEF77D
:10545000FFFBFEF7FDFBFEF7FBFBFEF7F9FBFEF79C
:1054600002FCFEF7F5FBFEF7F3FBFEF7F1FBFEF7A0
:10547000EFFB02E001E000E000BF00BF51E5052CBA
:105480007DD2DFE804F003A6FDFCFB00FEF7E0FBA5
:10549000FEF7DEFBFEF7DCFBFEF7E5FBFEF7E3FBCA
:1054A000FEF7D6FBFEF7D4FBFEF7D2FBFEF7D0FBF0
:1054B000FEF7CEFBFEF7CCFBFEF7D5FBFEF7D3FBEA
:1054C000FEF7C6FBFEF7C4FBFEF7C2FBFEF7C0FB10
:1054D000FEF7BEFBFEF7BCFBFEF7C5FBFEF7C3FB0A
:1054E000FEF7B6FBFEF7B4FBFEF7B2FBFEF7B0FB30
:1054F000FEF7AEFBFEF7ACFBFEF7B5FBFEF7B3FB2A
:10550000FEF7A6FBFEF7A4FBFEF7A2FBFEF7A0FB4F
:10551000FEF79EFBFEF79CFBFEF7A5FBFEF7A3FB49
:10552000FEF796FBFEF794FBFEF792FBFEF790FB6F
:10553000FEF78EFBFEF78CFBFEF795FBFEF793FB69
:10554000FEF786FBFEF784FBFEF782FBFEF780FB8F
:10555000FEF77EFBFEF77CFBFEF785FBFEF783FB89
:10556000FEF776FBFEF774FBFEF772FBFEF770FBAF
:10557000FEF76EFBFEF76CFBFEF775FB00E0D0E07C
:10558000FEF771FBFEF764FBFEF762FBFEF760FBC4
:10559000FEF75EFBFEF75CFBFEF75AFBFEF763FBD4
:1055A000FEF761FBFEF754FBFEF752FBFEF750FBE4
:1055B000FEF74EFBFEF74CFBFEF74AFBFEF753FBF4
:1055C000FEF751FBFEF744FBFEF742FBFEF740FB04
:1055D000A7E0FEF73DFBFEF73BFBFEF739FBFEF7CE
:1055E00037FBFEF740FBFEF733FBFEF731FBFEF720
:1055F0002FFBFEF72DFBFEF72BFBFEF729FBFEF73B
:1056000032FBFEF725FBFEF723FBFEF721FBFEF73F
:105610001FFBFEF71DFBFEF71BFBFEF719FBFEF75A
:1056200017FBFEF720FBFEF713FBFEF711FBFEF75F
:105630000FFBFEF70DFBFEF70BFBFEF709FBFEF77A
:1056400012FBFEF705FBFEF703FBFEF701FBFEF77F
:10565000FFFAFEF7FDFAFEF7FBFAFEF7F9FAFEF79E
:10566000F7FAFEF700FBFEF7F3FAFEF7F1FAFEF7A2
:10567000EFFAFEF7EDFAFEF7EBFA02E050E04EE04B
:105680004CE0FEF7E5FAFEF7EEFAFEF7E1FAFEF778
:10569000DFFAFEF7DDFAFEF7DBFAFEF7D9FAFEF7DE
:1056A000D7FAFEF7D5FAFEF7D3FAFEF7DCFAFEF7E3
:1056B000CFFAFEF7CDFAFEF7CBFAFEF7C9FAFEF7FE
:1056C000C7FAFEF7C5FAFEF7CEFAFEF7C1FAFEF703
:1056D000BFFAFEF7BDFAFEF7BBFAFEF7B9FAFEF71E
:1056E000B7FAFEF7B5FAFEF7B3FAFEF7BCFAFEF723
:1056F000AFFAFEF7ADFAFEF7ABFAFEF7A9FAFEF73E
:10570000A7FAFEF7A5FAFEF7AEFAFEF7A1FAFEF742
:105710009FFAFEF79DFAFEF79BFA02E001E000E037
:1057200000BF00BF56E5052C7DD2DFE804F003A6DC
:10573000FDFCFB00FEF78CFAFEF78AFAFEF788FA0A
:10574000FEF791FAFEF78FFAFEF782FAFEF780FA7B
:10575000FEF77EFAFEF77CFAFEF77AFAFEF778FAA1
:10576000FEF781FAFEF77FFAFEF772FAFEF770FA9B
:10577000FEF76EFAFEF76CFAFEF76AFAFEF768FAC1
:10578000FEF771FAFEF76FFAFEF762FAFEF760FABB
:10579000FEF75EFAFEF75CFAFEF75AFAFEF758FAE1
:1057A000FEF761FAFEF75FFAFEF752FAFEF750FADB
:1057B000FEF74EFAFEF74CFAFEF74AFAFEF748FA01
:1057C000FEF751FAFEF74FFAFEF742FAFEF740FAFB
:1057D000FEF73EFAFEF73CFAFEF73AFAFEF738FA21
:1057E000FEF741FAFEF73FFAFEF732FAFEF730FA1B
:1057F000FEF72EFAFEF72CFAFEF72AFAFEF728FA41
:10580000FEF731FAFEF72FFAFEF722FAFEF720FA3A
:10581000FEF71EFAFEF71CFAFEF71AFAFEF718FA60
:10582000FEF721FA00E0D0E0FEF71DFAFEF710FACD
:10583000FEF70EFAFEF70CFAFEF70AFAFEF708FA80
:10584000FEF706FAFEF70FFAFEF70DFAFEF700FA7A
:10585000FEF7FEF9FEF7FCF9FEF7FAF9FEF7F8F9A4
:10586000FEF7F6F9FEF7FFF9FEF7FDF9FEF7F0F99E
:10587000FEF7EEF9FEF7ECF9A7E0FEF7E9F9FEF71F
:10588000E7F9FEF7E5F9FEF7E3F9FEF7ECF9FEF7C5
:10589000DFF9FEF7DDF9FEF7DBF9FEF7D9F9FEF7E0
:1058A000D7F9FEF7D5F9FEF7DEF9FEF7D1F9FEF7E5
:1058B000CFF9FEF7CDF9FEF7CBF9FEF7C9F9FEF700
:1058C000C7F9FEF7C5F9FEF7C3F9FEF7CCF9FEF705
:1058D000BFF9FEF7BDF9FEF7BBF9FEF7B9F9FEF720
:1058E000B7F9FEF7B5F9FEF7BEF9FEF7B1F9FEF725
:1058F000AFF9FEF7ADF9FEF7ABF9FEF7A9F9FEF740
:10590000A7F9FEF7A5F9FEF7A3F9FEF7ACF9FEF744
:105910009FF9FEF79DF9FEF79BF9FEF799F9FEF75F
:1059200097F902E050E04EE04CE0FEF791F9FEF707
:105930009AF9FEF78DF9FEF78BF9FEF789F9FEF774
:1059400087F9FEF785F9FEF783F9FEF781F9FEF78F
:105950007FF9FEF788F9FEF77BF9FEF779F9FEF794
:1059600077F9FEF775F9FEF773F9FEF771F9FEF7AF
:105970007AF9FEF76DF9FEF76BF9FEF769F9FEF7B4
:1059800067F9FEF765F9FEF763F9FEF761F9FEF7CF
:105990005FF9FEF768F9FEF75BF9FEF759F9FEF7D4
:1059A00057F9FEF755F9FEF753F9FEF751F9FEF7EF
:1059B0005AF9FEF74DF9FEF74BF9FEF749F9FEF7F4
:1059C00047F902E001E000E000BF00BF56E5052C0A
:1059D0007DD2DFE804F003A6FDFCFB00FEF738F9FA
:1059E000FEF736F9FEF734F9FEF73DF9FEF73BF91D
:1059F000FEF72EF9FEF72CF9FEF72AF9FEF728F943
:105A0000FEF726F9FEF724F9FEF72DF9FEF72BF93C
:105A1000FEF71EF9FEF71CF9FEF71AF9FEF718F962
:105A2000FEF716F9FEF714F9FEF71DF9FEF71BF95C
:105A3000FEF70EF9FEF70CF9FEF70AF9FEF708F982
:105A4000FEF706F9FEF704F9FEF70DF9FEF70BF97C
:105A5000FEF7FEF8FEF7FCF8FEF7FAF8FEF7F8F8A6
:105A6000FEF7F6F8FEF7F4F8FEF7FDF8FEF7FBF8A0
:105A7000FEF7EEF8FEF7ECF8FEF7EAF8FEF7E8F8C6
:105A8000FEF7E6F8FEF7E4F8FEF7EDF8FEF7EBF8C0
:105A9000FEF7DEF8FEF7DCF8FEF7DAF8FEF7D8F8E6
:105AA000FEF7D6F8FEF7D4F8FEF7DDF8FEF7DBF8E0
:105AB000FEF7CEF8FEF7CCF8FEF7CAF8FEF7C8F806
:105AC000FEF7C6F8FEF7C4F8FEF7CDF800E00EE2E8
:105AD000FEF7C9F8FEF7BCF8FEF7BAF8FEF7B8F81B
